:100000000C942A000C943F000C943F000C943F0089
:100010000C943F000C943F000C943F000C943F0064
:100020000C943F000C943F000C943F000C943F0054
:100030000C943F000C943F000C943F000C943F0044
:100040000C943F000C943F000C943F000C943F0034
:100050000C943F0011241FBECFE5D8E0DEBFCDBF1A
:1000600010E0A0E6B0E0E0E9FEE202C005900D92EB
:10007000A43BB107D9F70E9474120C9446170C9454
:100080000000EF92FF920F931F937B018C0120E001
:1000900030E040E05FE40E94410388238CF0C80117
:1000A000B70120E030E040E05FE40E94B9010E9427
:1000B000A1039B01AC01205030404040504806C095
:1000C000C801B7010E94A1039B01AC01B901CA019B
:1000D0001F910F91FF90EF900895A0E0B0E0E3E74B
:1000E000F0E00C943F14DC012B01FA019C9192305A
:1000F00008F439C1EB018881823008F433C19430AF
:1001000069F4843009F02FC111969C91119789816F
:10011000981709F428C1A3E9B0E025C1843009F497
:1001200021C18230A9F4923009F01DC19A01AD01BC
:1001300088E0EA010990AE01E90109929E0181502F
:10014000C1F7E201898111969C918923818308C1BD
:10015000923009F407C112962D903C901397EB0151
:100160008A819B811496AD90BD90CD90DC901797BD
:10017000EC80FD800E811F819101281B390BB90194
:1001800037FF04C066277727621B730B6032710547
:100190000CF061C0121613066CF537014801062EEB
:1001A00004C096948794779467940A94D2F721E0D8
:1001B00030E040E050E004C0220F331F441F551FC1
:1001C0006A95D2F721503040404050402E213F21C7
:1001D00040235123211531054105510521F021E02E
:1001E00030E040E050E079018A01E628F72808294C
:1001F00019293CC0232BD1F1260E371E35014601AB
:10020000062E04C096948794779467940A94D2F744
:1002100021E030E040E050E004C0220F331F441FD3
:10022000551F6A95D2F721503040404050402A2156
:100230003B214C215D21211531054105510521F05E
:1002400021E030E040E050E059016A01A628B728DB
:10025000C828D9280BC0821593052CF01C01AA24AC
:10026000BB24650103C0EE24FF24870111969C91F5
:10027000D20111968C91981709F445C0992339F051
:10028000A80197012A193B094C095D0906C0A6017E
:1002900095012E193F09400B510B57FD08C01182E3
:1002A0003382228224833583468357831DC081E0B5
:1002B00081833382228288279927DC01821B930B5A
:1002C000A40BB50B84839583A683B7830DC0220F3F
:1002D000331F441F551F24833583468357838281F0
:1002E000938101979383828324813581468157814D
:1002F000DA01C9010197A109B1098F5F9F4FAF4F83
:10030000BF4328F30BC0918333822282EA0CFB1C8B
:100310000C1D1D1DE482F5820683178383E0808314
:10032000248135814681578157FF1AC0C901AA2708
:1003300097FDA095BA2F81709070A070B0705695FF
:10034000479537952795822B932BA42BB52B848328
:100350009583A683B7838281938101969383828359
:10036000DF0101C0D201CD01CDB7DEB7E2E10C94CF
:100370005B14A0E2B0E0EFEBF1E00C944B14698366
:100380007A838B839C832D833E834F835887E9E058
:10039000EE2EF12CEC0EFD1ECE010196B7010E944F
:1003A000CA048E010F5E1F4FCE010596B8010E9450
:1003B000CA048A8991E089278A8BC701B801AE01F6
:1003C000475E5F4F0E946D000E94F503A096E6E035
:1003D0000C946714A0E2B0E0E0EFF1E00C944B1451
:1003E00069837A838B839C832D833E834F835887D5
:1003F000F9E0EF2EF12CEC0EFD1ECE010196B701B7
:100400000E94CA048E010F5E1F4FCE010596B801EF
:100410000E94CA04C701B801AE01475E5F4F0E9447
:100420006D000E94F503A096E6E00C946714A0E22C
:10043000B0E0EDE1F2E00C943F1469837A838B83A2
:100440009C832D833E834F835887CE010196BE0146
:10045000675F7F4F0E94CA04CE010596BE016F5EA2
:100460007F4F0E94CA049985923088F08989823032
:10047000C8F0943019F4823051F404C0843029F467
:10048000923081F483E990E0C6C0923049F420E0D4
:100490009A858A89981321E02A87CE010996BBC0E4
:1004A000823049F420E09A858A89981321E02A8BCA
:1004B000CE014196B0C02D843E844F8458886D880B
:1004C0007E888F88988CEE24FF248701AA24BB2481
:1004D000650140E050E060E070E0E0E0F0E0C10184
:1004E00081709070892BE9F0E60CF71C081D191D2E
:1004F0009A01AB012A0D3B1D4C1D5D1D80E090E073
:10050000A0E0B0E0E614F7040805190520F481E046
:1005100090E0A0E0B0E0BA01A901480F591F6A1F9E
:100520007B1FAA0CBB1CCC1CDD1C97FE08C081E005
:1005300090E0A0E0B0E0A82AB92ACA2ADB2A3196C6
:10054000E032F10549F0660C771C881C991C569422
:10055000479437942794C3CFFA85EA892B893C893D
:100560008B859C85280F391F2E5F3F4F17C0CA010E
:1005700081709070892B61F016950795F794E79438
:1005800080E090E0A0E0B0E8E82AF92A0A2B1B2BD3
:1005900076956795579547952F5F3F4F77FDE7CF46
:1005A0000CC0440F551F661F771F17FD4160EE0CEE
:1005B000FF1C001F111F21503040403090E05907B0
:1005C00090E0690790E4790760F32B8F3C8FDB01A3
:1005D000CA018F779070A070B07080349105A1052A
:1005E000B10561F447FD0AC0E114F10401051105EC
:1005F00029F0405C5F4F6F4F7F4F40781A8EFE1797
:1006000011F081E08A8F4D8F5E8F6F8F78A383E02A
:10061000898FCE0149960E94F503A096E2E10C94E1
:100620005B14A8E1B0E0E7E1F3E00C944B146983BC
:100630007A838B839C832D833E834F83588789E005
:10064000E82EF12CEC0EFD1ECE010196B7010E94A2
:10065000CA048E010F5E1F4FCE010596B8010E949D
:10066000CA048985823040F08989823028F0C70128
:10067000B8010E94420501C08FEF6896E6E00C9435
:100680006714A8E1B0E0E7E4F3E00C944B1469834D
:100690007A838B839C832D833E834F83588789E0A5
:1006A000E82EF12CEC0EFD1ECE010196B7010E9442
:1006B000CA048E010F5E1F4FCE010596B8010E943D
:1006C000CA048985823040F08989823028F0C701C8
:1006D000B8010E94420501C08FEF6896E6E00C94D5
:1006E0006714A8E1B0E0E7E7F3E00C944B146983EA
:1006F0007A838B839C832D833E834F83588789E045
:10070000E82EF12CEC0EFD1ECE010196B7010E94E1
:10071000CA048E010F5E1F4FCE010596B8010E94DC
:10072000CA048985823040F08989823028F0C70167
:10073000B8010E94420501C081E06896E6E00C9491
:100740006714ACE0B0E0E7EAF3E00C944F1469837F
:100750007A838B839C83CE010196BE016B5F7F4FB2
:100760000E94CA048D81823061F1823050F1843060
:1007700021F48E81882351F12EC02F81388537FDD9
:1007800020C06E812F3131051CF06623F9F023C0A3
:100790008EE190E0821B930B29853A854B855C8521
:1007A00004C056954795379527958A95D2F76623C5
:1007B000B1F050954095309521953F4F4F4F5F4F89
:1007C0000EC020E030E040E050E009C02FEF3FEFE6
:1007D0004FEF5FE704C020E030E040E050E8B901AF
:1007E000CA012C96E2E00C946B14DF92EF92FF9218
:1007F0000F931F93FC01E480F58006811781D1805F
:100800008081823048F480E090E0A0E1B0E0E82A06
:10081000F92A0A2B1B2BA5C0843009F49FC0823013
:1008200021F4EE24FF24870105C0E114F104010541
:10083000110519F4E0E0F0E096C0628173819FEF4A
:10084000623879070CF05BC022E83FEF261B370BBC
:100850002A3131052CF020E030E040E050E02AC0A1
:10086000B801A701022E04C0769567955795479564
:100870000A94D2F781E090E0A0E0B0E004C0880FD5
:10088000991FAA1FBB1F2A95D2F70197A109B10989
:100890008E219F21A023B1230097A105B10521F04E
:1008A00081E090E0A0E0B0E09A01AB01282B392B69
:1008B0004A2B5B2BDA01C9018F779070A070B07062
:1008C00080349105A105B10539F427FF09C0205CEA
:1008D0003F4F4F4F5F4F04C0215C3F4F4F4F5F4F23
:1008E000E0E0F0E02030A0E03A07A0E04A07A0E412
:1008F0005A0710F0E1E0F0E079018A0127C0603882
:10090000710564F5FB01E158FF4FD801C7018F77EE
:100910009070A070B07080349105A105B10539F4D4
:10092000E7FE0DC080E490E0A0E0B0E004C08FE3FB
:1009300090E0A0E0B0E0E80EF91E0A1F1B1F17FFB1
:1009400005C016950795F794E794319687E01695BC
:100950000795F794E7948A95D1F705C0EE24FF2414
:100960008701EFEFF0E06E2F679566276795902F70
:100970009F77D794DD24D7948E2F8695492F462BC9
:10098000582F5D29B701CA011F910F91FF90EF9079
:10099000DF900895FC01DB01408151812281622FAB
:1009A0006F7770E0221F2227221F9381892F880FE3
:1009B000822B282F30E0991F9927991F11969C931D
:1009C000119721153105A9F54115510561057105ED
:1009D00011F482E037C082E89FEF13969C938E93C8
:1009E00012979A01AB0167E0220F331F441F551F76
:1009F0006A95D1F783E08C930DC0220F331F441FFB
:100A0000551F12968D919C911397019713969C9365
:100A10008E931297203080E0380780E0480780E40A
:100A2000580758F314962D933D934D935C93179765
:100A300008952F3F310579F4411551056105710580
:100A400019F484E08C93089564FF03C081E08C93D3
:100A500012C01C9210C02F57304013963C932E9317
:100A6000129783E08C9387E0440F551F661F771F12
:100A70008A95D1F7706414964D935D936D937C9332
:100A8000179708951F93DC01FB019C91923008F4A5
:100A900047C08081823008F443C0943051F41196ED
:100AA0001C91843099F58181682F70E0611B710978
:100AB0003FC0843021F0923031F48230B9F181812D
:100AC000882389F12DC011961C9111978230F1F085
:100AD00081811817D9F412962D913C911397828138
:100AE00093818217930794F028173907BCF0149666
:100AF0008D919D910D90BC91A02D248135814681D1
:100B00005781281739074A075B0718F4112341F06A
:100B10000AC082179307A407B50740F4112319F000
:100B200061E070E005C06FEF7FEF02C060E070E051
:100B3000CB011F910895DF93CF9300D000D00F9287
:100B4000CDB7DEB789836A834B838981282F30E054
:100B50003D832C838C819D818234910509F448C0AA
:100B60002C813D812334310534F48C819D81813485
:100B7000910571F0CBC02C813D812334310509F4FE
:100B800067C08C819D818434910509F491C0BEC0F9
:100B90008B818130A1F4AAE3B0E0EAE3F0E0808148
:100BA000482F8A81282F30E081E090E0022E02C099
:100BB000880F991F0A94E2F7842B8C93A7C08B812E
:100BC000882309F0A3C0AAE3B0E0EAE3F0E0808163
:100BD000482F8A81282F30E081E090E0022E02C069
:100BE000880F991F0A94E2F7809584238C938EC016
:100BF0008B818130A1F4A7E3B0E0E7E3F0E08081EE
:100C0000482F8A81282F30E081E090E0022E02C038
:100C1000880F991F0A94E2F7842B8C9377C08B81FD
:100C2000882309F073C0A7E3B0E0E7E3F0E0808138
:100C3000482F8A81282F30E081E090E0022E02C008
:100C4000880F991F0A94E2F7809584238C935EC0E5
:100C50008B818130A1F4A4E3B0E0E4E3F0E0808193
:100C6000482F8A81282F30E081E090E0022E02C0D8
:100C7000880F991F0A94E2F7842B8C9347C08B81CD
:100C8000882309F043C0A4E3B0E0E4E3F0E080810E
:100C9000482F8A81282F30E081E090E0022E02C0A8
:100CA000880F991F0A94E2F7809584238C932EC0B5
:100CB0008B818130A1F4A1E3B0E0E1E3F0E0808139
:100CC000482F8A81282F30E081E090E0022E02C078
:100CD000880F991F0A94E2F7842B8C9317C08B819D
:100CE0008823A1F4A1E3B0E0E1E3F0E08081482FA4
:100CF0008A81282F30E081E090E0022E02C0880F28
:100D0000991F0A94E2F7809584238C930F900F909B
:100D10000F900F900F90CF91DF910895DF93CF93B5
:100D200000D000D00F92CDB7DEB789836A834B83A2
:100D30008981282F30E03D832C838C819D818234F2
:100D4000910509F448C02C813D812334310534F4E8
:100D50008C819D818134910571F0CBC02C813D81C6
:100D60002334310509F467C08C819D818434910559
:100D700009F491C0BEC08B818130A1F4ABE3B0E037
:100D8000EBE3F0E08081482F8A81282F30E081E07A
:100D900090E0022E02C0880F991F0A94E2F7842B7C
:100DA0008C93A7C08B81882309F0A3C0ABE3B0E08C
:100DB000EBE3F0E08081482F8A81282F30E081E04A
:100DC00090E0022E02C0880F991F0A94E2F78095E6
:100DD00084238C938EC08B818130A1F4A8E3B0E092
:100DE000E8E3F0E08081482F8A81282F30E081E01D
:100DF00090E0022E02C0880F991F0A94E2F7842B1C
:100E00008C9377C08B81882309F073C0A8E3B0E08E
:100E1000E8E3F0E08081482F8A81282F30E081E0EC
:100E200090E0022E02C0880F991F0A94E2F7809585
:100E300084238C935EC08B818130A1F4A5E3B0E064
:100E4000E5E3F0E08081482F8A81282F30E081E0BF
:100E500090E0022E02C0880F991F0A94E2F7842BBB
:100E60008C9347C08B81882309F043C0A5E3B0E091
:100E7000E5E3F0E08081482F8A81282F30E081E08F
:100E800090E0022E02C0880F991F0A94E2F7809525
:100E900084238C932EC08B818130A1F4A2E3B0E037
:100EA000E2E3F0E08081482F8A81282F30E081E062
:100EB00090E0022E02C0880F991F0A94E2F7842B5B
:100EC0008C9317C08B818823A1F4A2E3B0E0E2E306
:100ED000F0E08081482F8A81282F30E081E090E087
:100EE000022E02C0880F991F0A94E2F7809584238E
:100EF0008C930F900F900F900F900F90CF91DF91E8
:100F00000895DF93CF9300D000D0CDB7DEB78983AB
:100F10006A838981282F30E03C832B838B819C81DD
:100F20008234910551F12B813C812334310534F415
:100F30008B819C818134910561F05AC02B813C8169
:100F40002334310571F18B819C8184349105E9F161
:100F50004FC0ABE3B0E0EBE3F0E08081482F8A8143
:100F6000282F30E081E090E0022E02C0880F991F08
:100F70000A94E2F784278C933BC0A8E3B0E0E8E34F
:100F8000F0E08081482F8A81282F30E081E090E0D6
:100F9000022E02C0880F991F0A94E2F784278C93CF
:100FA00027C0A5E3B0E0E5E3F0E08081482F8A8127
:100FB000282F30E081E090E0022E02C0880F991FB8
:100FC0000A94E2F784278C9313C0A2E3B0E0E2E333
:100FD000F0E08081482F8A81282F30E081E090E086
:100FE000022E02C0880F991F0A94E2F784278C937F
:100FF0000F900F900F900F90CF91DF910895DF9396
:10100000CF9300D000D00F92CDB7DEB78A836B8329
:1010100019828A81282F30E03D832C834C815D81A9
:101020004234510541F18C819D818334910534F422
:101030002C813D812134310561F052C04C815D81AC
:101040004334510551F18C819D8184349105B9F16E
:1010500047C0E9E3F0E08081282F30E08B81882FC2
:1010600090E0A90102C0559547958A95E2F7CA011B
:101070008170898335C0E6E3F0E08081282F30E07D
:101080008B81882F90E0A90102C0559547958A95DC
:10109000E2F7CA018170898323C0E3E3F0E0808135
:1010A000282F30E08B81882F90E0A90102C0559550
:1010B00047958A95E2F7CA018170898311C0E0E300
:1010C000F0E08081282F30E08B81882F90E0A9010B
:1010D00002C0559547958A95E2F7CA0181708983C8
:1010E00089810F900F900F900F900F90CF91DF910B
:1010F0000895DF93CF93CDB7DEB7EAE3F0E08FE753
:101100008083E7E3F0E08DEF8083E4E3F0E083E1C8
:101110008083E1E3F0E01082EBE3F0E01082E8E3AB
:10112000F0E084EF8083E5E3F0E01082E2E3F0E0BA
:101130008CE3808381E0CF91DF910895DF93CF939B
:10114000CDB7DEB72E970FB6F894DEBF0FBECDBF7A
:101150008A836B834C8381E089838A81843008F0A1
:101160000CC18B81883008F008C18C81813021F05E
:101170008C81882309F001C18A81282F30E03E87C5
:101180002D878D859E858130910509F44FC02D8571
:101190003E85223031052CF48D859E85009771F0B7
:1011A000EDC02D853E852230310509F477C08D854F
:1011B0009E858330910509F4A9C0E0C08C81282F59
:1011C00030E03C872B878B859C850097D1F02B8561
:1011D0003C852130310509F0D1C0AAE3B0E0EAE353
:1011E000F0E08081482F8B81282F30E081E090E073
:1011F000022E02C0880F991F0A94E2F7842B8C9369
:10120000BDC0AAE3B0E0EAE3F0E08081482F8B8123
:10121000282F30E081E090E0022E02C0880F991F55
:101220000A94E2F7809584238C93A8C08C81282FA0
:1012300030E03A87298789859A850097D1F02985FA
:101240003A852130310509F099C0A7E3B0E0E7E322
:10125000F0E08081482F8B81282F30E081E090E002
:10126000022E02C0880F991F0A94E2F7842B8C93F8
:1012700085C0A7E3B0E0E7E3F0E08081482F8B81F1
:10128000282F30E081E090E0022E02C0880F991FE5
:101290000A94E2F7809584238C9370C08C81282F68
:1012A00030E038872F838F8198850097D1F02F8188
:1012B00038852130310509F061C0A4E3B0E0E4E3F2
:1012C000F0E08081482F8B81282F30E081E090E092
:1012D000022E02C0880F991F0A94E2F7842B8C9388
:1012E0004DC0A4E3B0E0E4E3F0E08081482F8B81BF
:1012F000282F30E081E090E0022E02C0880F991F75
:101300000A94E2F7809584238C9338C08C81282F2F
:1013100030E03E832D838D819E810097C9F02D8121
:101320003E812130310551F5A1E3B0E0E1E3F0E089
:101330008081482F8B81282F30E081E090E0022EC1
:1013400002C0880F991F0A94E2F7842B8C9316C071
:10135000A1E3B0E0E1E3F0E08081482F8B81282F0A
:1013600030E081E090E0022E02C0880F991F0A94BD
:10137000E2F7809584238C9301C0198289812E968F
:101380000FB6F894DEBF0FBECDBFCF91DF910895A9
:10139000DF93CF93CDB7DEB72E970FB6F894DEBFAD
:1013A0000FBECDBF8A836B834C8381E089838A81A2
:1013B000843008F00CC18B81883008F008C18C8122
:1013C000813021F08C81882309F001C18A81282F86
:1013D00030E03E872D878D859E858130910509F40B
:1013E0004FC02D853E85223031052CF48D859E859C
:1013F000009771F0EDC02D853E852230310509F44E
:1014000077C08D859E858330910509F4A9C0E0C021
:101410008C81282F30E03C872B878B859C8500971B
:10142000D1F02B853C852130310509F0D1C0ABE3EB
:10143000B0E0EBE3F0E08081482F8B81282F30E093
:1014400081E090E0022E02C0880F991F0A94E2F713
:10145000842B8C93BDC0ABE3B0E0EBE3F0E0808184
:10146000482F8B81282F30E081E090E0022E02C0CF
:10147000880F991F0A94E2F7809584238C93A8C063
:101480008C81282F30E03A87298789859A850097B3
:10149000D1F029853A852130310509F099C0A8E3BA
:1014A000B0E0E8E3F0E08081482F8B81282F30E026
:1014B00081E090E0022E02C0880F991F0A94E2F7A3
:1014C000842B8C9385C0A8E3B0E0E8E3F0E0808152
:1014D000482F8B81282F30E081E090E0022E02C05F
:1014E000880F991F0A94E2F7809584238C9370C02B
:1014F0008C81282F30E038872F838F819885009743
:10150000D1F02F8138852130310509F061C0A5E384
:10151000B0E0E5E3F0E08081482F8B81282F30E0B8
:1015200081E090E0022E02C0880F991F0A94E2F732
:10153000842B8C934DC0A5E3B0E0E5E3F0E080811F
:10154000482F8B81282F30E081E090E0022E02C0EE
:10155000880F991F0A94E2F7809584238C9338C0F2
:101560008C81282F30E03E832D838D819E810097D2
:10157000C9F02D813E812130310551F5A2E3B0E063
:10158000E2E3F0E08081482F8B81282F30E081E07A
:1015900090E0022E02C0880F991F0A94E2F7842B74
:1015A0008C9316C0A2E3B0E0E2E3F0E08081482F24
:1015B0008B81282F30E081E090E0022E02C0880F5E
:1015C000991F0A94E2F7809584238C9301C01982B5
:1015D00089812E960FB6F894DEBF0FBECDBFCF9196
:1015E000DF910895DF93CF93CDB7DEB727970FB67E
:1015F000F894DEBF0FBECDBF8A836B835D834C83BF
:1016000081E089838A81843008F07AC08B818830B8
:1016100008F076C08C819D81009709F471C08A81A1
:10162000282F30E03F832E834E815F81413051056A
:1016300059F18E819F818230910534F42E813F8152
:101640002115310569F05DC04E815F814230510541
:1016500079F18E819F818330910509F43DC051C09D
:10166000E9E3F0E08081282F30E08B81882F90E043
:10167000A90102C0559547958A95E2F7CA01817084
:10168000EC81FD8180833DC0E6E3F0E08081282F7E
:1016900030E08B81882F90E0A90102C055954795D5
:1016A0008A95E2F7CA018170EC81FD81808329C0AF
:1016B000E3E3F0E08081282F30E08B81882F90E0F9
:1016C000A90102C0559547958A95E2F7CA01817034
:1016D000EC81FD81808315C0E0E3F0E08081282F5C
:1016E00030E08B81882F90E0A90102C05595479585
:1016F0008A95E2F7CA018170EC81FD81808301C087
:101700001982898127960FB6F894DEBF0FBECDBF30
:10171000CF91DF910895DF93CF93CDB7DEB72D97AB
:101720000FB6F894DEBF0FBECDBF8A836B8381E016
:1017300089838A81843008F084C08B81813021F0D4
:101740008B81882309F07DC08A81282F30E03D8776
:101750002C878C859D858130910571F12C853D8587
:10176000223031052CF48C859D85009769F06AC084
:101770002C853D8522303105B1F18C859D858330E6
:10178000910509F447C05EC08B81282F30E03B876C
:101790002A878A859B85009759F02A853B852130C9
:1017A000310509F04FC0EAE3F0E08FEF80834AC0D3
:1017B000EAE3F0E0108246C08B81282F30E03987C1
:1017C000288788859985009751F0288539852130AB
:1017D0003105C1F5E7E3F0E08FEF808333C0E7E345
:1017E000F0E010822FC08B81282F30E03F832E83C2
:1017F0008E819F81009751F02E813F8121303105EC
:1018000009F5E4E3F0E08FEF80831CC0E4E3F0E04F
:10181000108218C08B81282F30E03D832C838C816F
:101820009D81009751F02C813D812130310551F48B
:10183000E1E3F0E08FEF808305C0E1E3F0E01082A8
:1018400001C0198289812D960FB6F894DEBF0FBEB4
:10185000CDBFCF91DF910895DF93CF9300D000D01B
:101860000F92CDB7DEB78A836B8381E089838A814B
:10187000843098F58A81282F30E03D832C838C8139
:101880009D8181309105D1F02C813D81223031053F
:101890002CF48C819D81009761F020C02C813D81CA
:1018A0002230310581F08C819D818330910581F05A
:1018B00015C0EBE3F0E08B81808310C0E8E3F0E03B
:1018C0008B8180830BC0E5E3F0E08B81808306C0D1
:1018D000E2E3F0E08B81808301C0198289810F905F
:1018E0000F900F900F900F90CF91DF910895DF939D
:1018F000CF9300D000D000D0CDB7DEB78A837C83F1
:101900006B8381E089838A81843008F03FC08B81BA
:101910009C810097D9F18A81282F30E03E832D8366
:101920008D819E8181309105E1F02D813E812230B3
:1019300031052CF48D819E81009761F028C02D81A6
:101940003E8122303105A1F08D819E818330910549
:10195000B1F01DC0E9E3F0E08081EB81FC81808380
:1019600016C0E6E3F0E08081EB81FC8180830FC04C
:10197000E3E3F0E08081EB81FC81808308C0E0E359
:10198000F0E08081EB81FC81808301C01982898134
:1019900026960FB6F894DEBF0FBECDBFCF91DF9174
:1019A0000895DF93CF9300D000D00F92CDB7DEB76C
:1019B0008A836B8381E089838A81843008F073C0D5
:1019C0008B81883008F06FC08A81282F30E03D83FA
:1019D0002C838C819D818130910549F12C813D8141
:1019E000223031052CF48C819D81009761F05CC020
:1019F0002C813D812230310571F18C819D818330B4
:101A00009105E9F151C0ABE3B0E0EBE3F0E0808198
:101A1000482F8B81282F30E081E090E0022E02C019
:101A2000880F991F0A94E2F784278C933DC0A8E39E
:101A3000B0E0E8E3F0E08081482F8B81282F30E090
:101A400081E090E0022E02C0880F991F0A94E2F70D
:101A500084278C9329C0A5E3B0E0E5E3F0E0808122
:101A6000482F8B81282F30E081E090E0022E02C0C9
:101A7000880F991F0A94E2F784278C9315C0A2E37C
:101A8000B0E0E2E3F0E08081482F8B81282F30E046
:101A900081E090E0022E02C0880F991F0A94E2F7BD
:101AA00084278C9301C0198289810F900F900F9029
:101AB0000F900F90CF91DF910895DF93CF93CDB723
:101AC000DEB76C970FB6F894DEBF0FBECDBFE4E370
:101AD000F0E08FEF8083E7E3F0E08FEF808380E03A
:101AE00090E0A0EAB1E4898F9A8FAB8FBC8F698DAB
:101AF0007A8D8B8D9C8D20E030E04AEF54E40E947B
:101B00001702DC01CB018D8B9E8BAF8BB88F6D895B
:101B10007E898F89988D20E030E040E85FE30E9465
:101B2000710388232CF481E090E09C8B8B8B3FC069
:101B30006D897E898F89988D20E03FEF4FE757E4CC
:101B40000E94110318164CF5698D7A8D8B8D9C8D32
:101B500020E030E040E251E40E941702DC01CB01BA
:101B6000BC01CD010E944100DC01CB019C8B8B8B21
:101B70000FC088EC90E09A8B898B89899A890197AC
:101B8000F1F79A8B898B8B899C8901979C8B8B8B26
:101B90008B899C89009769F714C06D897E898F892C
:101BA000988D0E944100DC01CB019C8B8B8B8B8933
:101BB0009C89988B8F878F8598890197F1F7988BEF
:101BC0008F8788E30E946B0E8CE00E946B0E86E08C
:101BD0000E946B0E81E00E946B0E80E090E0A0E01E
:101BE000B0E48B879C87AD87BE876B857C858D85B0
:101BF0009E8520E030E04AEF54E40E941702DC01A9
:101C0000CB018F839887A987BA876F81788589856B
:101C10009A8520E030E040E85FE30E94710388236A
:101C20002CF481E090E09E838D833FC06F817885A6
:101C300089859A8520E03FEF4FE757E40E94110322
:101C400018164CF56B857C858D859E8520E030E0EF
:101C500040E251E40E941702DC01CB01BC01CD013E
:101C60000E944100DC01CB019E838D830FC088EC74
:101C700090E09C838B838B819C810197F1F79C83FF
:101C80008B838D819E8101979E838D838D819E8123
:101C9000009769F714C06F81788589859A850E94BD
:101CA0004100DC01CB019E838D838D819E819A83CF
:101CB000898389819A810197F1F79A83898380E8E2
:101CC0000E946B0E6C960FB6F894DEBF0FBECDBFB0
:101CD000CF91DF910895DF93CF93CDB7DEB76D97A6
:101CE0000FB6F894DEBF0FBECDBF8D8FE8E3F0E0F6
:101CF0008D8D8083A5E3B0E0E5E3F0E080818D7F0A
:101D00008C93A5E3B0E0E5E3F0E080818B7F8C93DA
:101D1000A5E3B0E0E5E3F0E0808188608C9380E0AB
:101D200090E0A0E8BFE3898F9A8FAB8FBC8F698D5D
:101D30007A8D8B8D9C8D20E030E04AEF54E40E9438
:101D40001702DC01CB018D8B9E8BAF8BB88F6D8919
:101D50007E898F89988D20E030E040E85FE30E9423
:101D6000710388232CF481E090E09C8B8B8B3FC027
:101D70006D897E898F89988D20E03FEF4FE757E48A
:101D80000E94110318164CF5698D7A8D8B8D9C8DF0
:101D900020E030E040E251E40E941702DC01CB0178
:101DA000BC01CD010E944100DC01CB019C8B8B8BDF
:101DB0000FC088EC90E09A8B898B89899A8901976A
:101DC000F1F79A8B898B8B899C8901979C8B8B8BE4
:101DD0008B899C89009769F714C06D897E898F89EA
:101DE000988D0E944100DC01CB019C8B8B8B8B89F1
:101DF0009C89988B8F878F8598890197F1F7988BAD
:101E00008F87A5E3B0E0E5E3F0E08081877F8C93E6
:101E100080E090E0A0EAB0E48B879C87AD87BE8726
:101E20006B857C858D859E8520E030E04AEF54E40B
:101E30000E941702DC01CB018F839887A987BA879C
:101E40006F81788589859A8520E030E040E85FE3FE
:101E50000E94710388232CF481E090E09E838D839F
:101E60003FC06F81788589859A8520E03FEF4FE7F5
:101E700057E40E94110318164CF56B857C858D85FF
:101E80009E8520E030E040E251E40E941702DC0130
:101E9000CB01BC01CD010E944100DC01CB019E833E
:101EA0008D830FC088EC90E09C838B838B819C8119
:101EB0000197F1F79C838B838D819E8101979E838F
:101EC0008D838D819E81009769F714C06F8178851D
:101ED00089859A850E944100DC01CB019E838D8318
:101EE0008D819E819A83898389819A810197F1F7F7
:101EF0009A8389836D960FB6F894DEBF0FBECDBF6F
:101F0000CF91DF910895DF93CF93CDB7DEB76D9773
:101F10000FB6F894DEBF0FBECDBF8D8FE8E3F0E0C3
:101F20008D8D8083A5E3B0E0E5E3F0E08081826001
:101F30008C93A5E3B0E0E5E3F0E080818B7F8C93A8
:101F4000A5E3B0E0E5E3F0E0808188608C9380E079
:101F500090E0A0E8BFE3898F9A8FAB8FBC8F698D2B
:101F60007A8D8B8D9C8D20E030E04AEF54E40E9406
:101F70001702DC01CB018D8B9E8BAF8BB88F6D89E7
:101F80007E898F89988D20E030E040E85FE30E94F1
:101F9000710388232CF481E090E09C8B8B8B3FC0F5
:101FA0006D897E898F89988D20E03FEF4FE757E458
:101FB0000E94110318164CF5698D7A8D8B8D9C8DBE
:101FC00020E030E040E251E40E941702DC01CB0146
:101FD000BC01CD010E944100DC01CB019C8B8B8BAD
:101FE0000FC088EC90E09A8B898B89899A89019738
:101FF000F1F79A8B898B8B899C8901979C8B8B8BB2
:102000008B899C89009769F714C06D897E898F89B7
:10201000988D0E944100DC01CB019C8B8B8B8B89BE
:102020009C89988B8F878F8598890197F1F7988B7A
:102030008F87A5E3B0E0E5E3F0E08081877F8C93B4
:1020400080E090E0A0EAB0E48B879C87AD87BE87F4
:102050006B857C858D859E8520E030E04AEF54E4D9
:102060000E941702DC01CB018F839887A987BA876A
:102070006F81788589859A8520E030E040E85FE3CC
:102080000E94710388232CF481E090E09E838D836D
:102090003FC06F81788589859A8520E03FEF4FE7C3
:1020A00057E40E94110318164CF56B857C858D85CD
:1020B0009E8520E030E040E251E40E941702DC01FE
:1020C000CB01BC01CD010E944100DC01CB019E830C
:1020D0008D830FC088EC90E09C838B838B819C81E7
:1020E0000197F1F79C838B838D819E8101979E835D
:1020F0008D838D819E81009769F714C06F817885EB
:1021000089859A850E944100DC01CB019E838D83E5
:102110008D819E819A83898389819A810197F1F7C4
:102120009A8389836D960FB6F894DEBF0FBECDBF3C
:10213000CF91DF910895DF93CF9300D00F92CDB769
:10214000DEB79B838A83198219820EC08981282F6A
:1021500030E08A819B81FC01E20FF31F80810E94A5
:10216000830F89818F5F89838981282F30E08A815D
:102170009B81FC01E20FF31F8081882339F70F90C8
:102180000F900F90CF91DF910895DF93CF9300D000
:1021900000D0CDB7DEB78B836C8380E8898380EC79
:1021A0008A838B81282F30E0CE010196FC01E20F5B
:1021B000F31F90818C81890F0E946B0E0F900F90FE
:1021C0000F900F90CF91DF910895DF93CF9300D0C0
:1021D00000D0CDB7DEB79B838A836C8319828C8154
:1021E000882F90E00896880F991F880F991F880FF5
:1021F000991F0E946B0E19820EC08981282F30E032
:102200008A819B81FC01E20FF31F80810E94830F72
:1022100089818F5F89838981883078F30F900F904F
:102220000F900F90CF91DF910895DF93CF93CDB7AB
:10223000DEB781E00E946B0E80E80E946B0ECF91AA
:10224000DF910895DF93CF930F92CDB7DEB7198258
:1022500033C08981882F90E0FC01E555FF4F9081C4
:1022600080E0692F41E00E949E088981882F90E0DC
:10227000FC01E555FF4F908180E0692F41E00E940D
:10228000C8098981882F90E0FC01E155FF4F9081BA
:1022900083E0692F40E00E949E088981882F90E0AA
:1022A000FC01E155FF4F908183E0692F41E00E94DE
:1022B000C80989818F5F89838981843050F281E0E8
:1022C0000F90CF91DF910895DF93CF93CDB7DEB715
:1022D00065970FB6F894DEBF0FBECDBF9D8B8C8B7C
:1022E00081E08A8B1B8A1F868C899D89009709F45F
:1022F000F0C0EC89FD898FEF8083198AE5C0898958
:10230000882F90E0FC01E555FF4F908180E0692F18
:1023100040E00E94C809188AC1C08889882F90E0CF
:10232000FC01E155FF4F90819E012D5E3F4F83E000
:10233000692FA9010E94F20A8B89882309F0ABC09A
:1023400080E090E0A0EAB1E48B879C87AD87BE87F0
:102350006B857C858D859E8520E030E04AE755E4DD
:102360000E941702DC01CB018F839887A987BA8767
:102370006F81788589859A8520E030E040E85FE3C9
:102380000E94710388232CF481E090E09E838D836A
:102390003FC06F81788589859A8520E03FEF4FE7C0
:1023A00057E40E94110318164CF56B857C858D85CA
:1023B0009E8520E030E040E251E40E941702DC01FB
:1023C000CB01BC01CD010E944100DC01CB019E8309
:1023D0008D830FC080E991E09C838B838B819C81EE
:1023E0000197F1F79C838B838D819E8101979E835A
:1023F0008D838D819E81009769F714C06F817885E8
:1024000089859A850E944100DC01CB019E838D83E2
:102410008D819E819A83898389819A810197F1F7C1
:102420009A8389838889882F90E0FC01E155FF4FCA
:1024300090819E012D5E3F4F83E0692FA9010E948C
:10244000F20A0FC08889882F90E0FC01E155FF4F08
:1024500090819E012D5E3F4F83E0692FA9010E946C
:10246000F20A8B89882371F38989482F50E0888983
:10247000282F30E0CA01880F991F880F991F820FFB
:10248000931FFC01E556FF4F8081EC89FD89808315
:1024900081E08F8707C088898F5F888B8889843027
:1024A00008F43BCF8989882F90E0FC01E555FF4F68
:1024B000908180E0692F41E00E94C8098F858823C0
:1024C00049F489898F5F898B8989843008F417CF13
:1024D00001C01A8A8A8965960FB6F894DEBF0FBECE
:1024E000CDBFCF91DF910895EF92FF920F931F938D
:1024F000DF93CF93CDB7DEB7AD970FB6F894DEBFBD
:102500000FBECDBF0E945D0D0E9422111A8219825A
:102510008AE0FE013496DF01282F1D922A95E9F703
:102520008AE0FE013E96DF01282F1D922A95E9F7E9
:1025300084E1FE017896DF01282F1D922A95E9F7A4
:102540002DC0CE0103960E946411813039F58B8134
:102550008F3F21F18B818B32F1F08B818D32D9F05D
:102560008B818A32C1F08B818F32A9F08B818D33C0
:1025700091F08A81282F30E04B81CE010496FC0136
:10258000E20FF31F40838A818F5F8A838A818130C3
:1025900011F40E9415118B810E94830F8B818B3265
:1025A00061F08B818D3249F08B818A3231F08B81E1
:1025B0008F3219F08B818D3321F68B8189838FEFD8
:1025C0008B831A8228C0CE0103960E946411813049
:1025D00011F58B818F3FF9F08B810E94830F8B81E6
:1025E0008B32C9F08B818D32B1F08B818A3299F0B8
:1025F0008B818F3281F08B818D3369F08A81282F16
:1026000030E04B81CE010E96FC01E20FF31F4083B8
:102610008A818F5F8A838B818B3261F08B818D32CF
:1026200049F08B818A3231F08B818F3219F08B81A6
:102630008D3349F68981A82FB0E0BDA7ACA72CA5A2
:102640003DA52B323105C1F08CA59DA58C3291059D
:102650003CF4ACA5BDA5AA32B10509F466C0D5C04D
:102660002CA53DA52D32310599F18CA59DA58F3264
:10267000910509F48AC0C9C00F2EF8E1EF2EFF249E
:10268000F02DEC0EFD1ECE0104960E9476148C01F6
:10269000CE010E960E9476149801280F391F00D0A3
:1026A00000D000D0EDB7FEB73196F182E08280E62F
:1026B00090E093838283358324830E94A514ADB771
:1026C000BEB716960FB6F894BEBF0FBEADBFA6C07C
:1026D0000F2EF8E1EF2EFF24F02DEC0EFD1ECE01A3
:1026E00004960E9476148C01CE010E960E947614F8
:1026F0009801281B390B00D000D000D0EDB7FEB7F1
:102700003196F182E08280E690E093838283358384
:1027100024830E94A5142DB73EB72A5F3F4F0FB602
:10272000F8943EBF0FBE2DBF79C00F2EF8E1EF2EFB
:10273000FF24F02DEC0EFD1ECE0104960E947614AF
:102740008C01CE010E960E947614089F9001099F7D
:10275000300D189F300D112400D000D000D0EDB7FF
:10276000FEB73196F182E08280E690E09383828327
:10277000358324830E94A5148DB79EB706960FB6A5
:10278000F8949EBF0FBE8DBF49C0CE010E960E9429
:102790007614009781F10F2EF8E1EF2EFF24F02D33
:1027A000EC0EFD1ECE0104960E9476148C01CE0123
:1027B0000E960E9476149C01C801B9010E9418145B
:1027C000CB019C0100D000D000D0EDB7FEB7319610
:1027D000F182E08280E690E09383828335832483D4
:1027E0000E94A514ADB7BEB716960FB6F894BEBF3B
:1027F0000FBEADBF13C0CE01489623E630E0B9014D
:1028000048E150E00E94941409C0CE0148962BE79D
:1028100030E0B90148E150E00E9494140E94151183
:10282000CE0148960E949B108FEF8B831A826FCE49
:1028300097FB092E07260AD077FD04D00CD006D0CE
:1028400000201AF4709561957F4F0895F6F79095E2
:1028500081959F4F0895AA1BBB1B51E107C0AA1F7A
:10286000BB1FA617B70710F0A61BB70B881F991F31
:102870005A95A9F780959095BC01CD0108952F92A6
:102880003F924F925F926F927F928F929F92AF9200
:10289000BF92CF92DF92EF92FF920F931F93CF934D
:1028A000DF93CDB7DEB7CA1BDB0B0FB6F894DEBFE4
:1028B0000FBECDBF09942A88398848885F846E840A
:1028C0007D848C849B84AA84B984C884DF80EE8054
:1028D000FD800C811B81AA81B981CE0FD11D0FB65D
:1028E000F894DEBF0FBECDBFED010895FC0188272F
:1028F0009927E89421912032E9F3293010F02E3005
:10290000C8F32B3241F02D3239F4689404C00E9490
:102910009D14820F911D219120532A30C0F31EF483
:10292000909581959F4F0895FB01DC0102C00190B5
:102930000D9241505040D8F708957AE0979F902D1E
:10294000879F802D910D11240895AEE0B0E0EBEA51
:10295000F4E10C944D140D891E8986E08C831A8352
:1029600009838FEF9FE79E838D839E01275E3F4FF4
:10297000CE0101966F89788DA9010E94C9142F811B
:102980003885020F131FF80110822E96E4E00C9494
:102990006914ABE0B0E0EFECF4E10C943F143C01BF
:1029A0002B015A01FC0117821682838181FD03C02D
:1029B0006FEF7FEFC6C19AE0892E1E010894211C9B
:1029C000311CF3012381F20123FD859123FF8191C5
:1029D0002F01882309F4B2C1853239F423FD859192
:1029E00023FF81912F01853229F490E0B3010E94E9
:1029F000BC16E7CF982FFF24EE249924FFE1FF15A2
:102A0000D0F09B3269F09C3228F4903259F0933226
:102A100091F40EC09D3249F0903369F441E024C036
:102A200052E0F52A84E0F82A28C098E0F92A25C067
:102A3000E0E1FE2A22C0F7FC29C0892F80538A30AA
:102A400070F4F6FE05C0989C902C1124980E15C0C9
:102A5000E89CE02C1124E80EF0E2FF2A0EC09E3222
:102A600029F4F6FC6BC140E4F42A07C09C3619F443
:102A700050E8F52A02C0983649F4F20123FD9591F9
:102A800023FF91912F01992309F0B8CF892F855405
:102A9000833018F08052833038F444E050E0A40EC4
:102AA000B51E5FE359830FC0933631F0933779F049
:102AB000933509F056C020C0F5018081898342E03A
:102AC00050E0A40EB51E610101E010E012C0F50156
:102AD000C080D180F6FC03C06FEF7FEF02C0692D8C
:102AE00070E042E050E0A40EB51EC6010E94B1168F
:102AF0008C015FE7F52214C0F501C080D180F6FC9F
:102B000003C06FEF7FEF02C0692D70E042E050E03C
:102B1000A40EB51EC6010E94A6168C0150E8F52A27
:102B2000F3FE07C01AC080E290E0B3010E94BC1619
:102B3000EA948E2D90E008171907A8F30EC0F6014D
:102B4000F7FC8591F7FE81916F0190E0B3010E943F
:102B5000BC16E110EA94015010400115110579F7F7
:102B6000EAC0943611F0993669F5F7FE08C0F50110
:102B7000208131814281538184E090E00AC0F501D7
:102B8000808191819C01442737FD4095542F82E03C
:102B900090E0A80EB91E9FE6F92257FF09C0509594
:102BA0004095309521953F4F4F4F5F4FE0E8FE2A0B
:102BB000CA01B901A1012AE030E00E94E816D82E2E
:102BC000D21840C0953729F41F2D1F7E2AE030E02F
:102BD0001DC01F2D197F9F3661F0903720F4983566
:102BE00009F0ACC00FC0903739F0983709F0A6C093
:102BF00004C028E030E00AC0106114FD146020E138
:102C000030E004C014FD166020E132E017FF08C078
:102C1000F501608171818281938144E050E008C0B8
:102C2000F50180819181BC0180E090E042E050E0BC
:102C3000A40EB51EA1010E94E816D82ED2188FE767
:102C4000F82EF122F6FE0BC05EEFF522D91438F40F
:102C5000F4FE07C0F2FC05C08FEEF82202C01D2D65
:102C600001C0192DF4FE0DC0FE01ED0DF11D808196
:102C7000803319F499EEF92208C01F5FF2FE05C0F7
:102C800003C08F2D867809F01F5F0F2DF3FC14C051
:102C9000F0FE0FC01E1510F09D2C0BC09D2C9E0C3D
:102CA000911A1E2D06C080E290E0B3010E94BC166E
:102CB0001F5F1E15C0F304C01E1510F4E11A01C0F9
:102CC000EE2404FF0FC080E390E0B3010E94BC1625
:102CD00002FF1DC001FD03C088E790E00EC088E53B
:102CE00090E00BC0802F867891F001FF02C08BE24C
:102CF00001C080E2F7FC8DE290E0B3010E94BC16B7
:102D000006C080E390E0B3010E94BC169A94D914E7
:102D1000C0F3DA94F101ED0DF11D808190E0B30173
:102D20000E94BC16DD20A9F706C080E290E0B30146
:102D30000E94BC16EA94EE20C1F743CEF3016681EF
:102D40007781CB012B96E2E10C945B14FC0105909A
:102D5000615070400110D8F7809590958E0F9F1F9D
:102D60000895FC016150704001900110D8F78095E2
:102D700090958E0F9F1F08950F931F93CF93DF930E
:102D80008C01EB018B8181FF1BC082FF0DC02E8166
:102D90003F818C819D812817390764F4E881F9818E
:102DA0000193F983E88306C0E885F985802F0995AA
:102DB000892B31F48E819F8101969F838E8302C07F
:102DC0000FEF1FEFC801DF91CF911F910F91089571
:102DD000FA01AA27283051F1203181F1E8946F934C
:102DE0006E7F6E5F7F4F8F4F9F4FAF4FB1E03ED0F2
:102DF000B4E03CD0670F781F891F9A1FA11D680F90
:102E0000791F8A1F911DA11D6A0F711D811D911DC2
:102E1000A11D20D009F468943F912AE0269F112437
:102E20003019305D3193DEF6CF010895462F47709B
:102E3000405D4193B3E00FD0C9F7F6CF462F4F70F6
:102E4000405D4A3318F0495D31FD4052419302D054
:102E5000A9F7EACFB4E0A6959795879577956795FA
:102E6000BA95C9F700976105710508959B01AC01FA
:102E70000A2E06945795479537952795BA95C9F721
:102E8000620F731F841F951FA01D0895F894FFCF34
:102E90002569004572726F723A20446976697369D8
:102EA0006F6E206279207A65726F004572726F7260
:102EB0003A20496E76616C6964206F706572617446
:102EC0006F720000000000000000003738392F3416
:102ED00035362A3132332D43303D2B0405060702A7
:042EE00003040500E2
:00000001FF
